{
  "_format": "hh-sol-artifact-1",
  "contractName": "MGLPass",
  "sourceName": "contracts/MGLPass.sol",
  "abi": [
    {
      "inputs": [],
      "stateMutability": "payable",
      "type": "constructor"
    },
    {
      "anonymous": false,
      "inputs": [
        {
          "indexed": true,
          "internalType": "address",
          "name": "owner",
          "type": "address"
        },
        {
          "indexed": true,
          "internalType": "address",
          "name": "approved",
          "type": "address"
        },
        {
          "indexed": true,
          "internalType": "uint256",
          "name": "tokenId",
          "type": "uint256"
        }
      ],
      "name": "Approval",
      "type": "event"
    },
    {
      "anonymous": false,
      "inputs": [
        {
          "indexed": true,
          "internalType": "address",
          "name": "owner",
          "type": "address"
        },
        {
          "indexed": true,
          "internalType": "address",
          "name": "operator",
          "type": "address"
        },
        {
          "indexed": false,
          "internalType": "bool",
          "name": "approved",
          "type": "bool"
        }
      ],
      "name": "ApprovalForAll",
      "type": "event"
    },
    {
      "anonymous": false,
      "inputs": [
        {
          "indexed": true,
          "internalType": "address",
          "name": "previousOwner",
          "type": "address"
        },
        {
          "indexed": true,
          "internalType": "address",
          "name": "newOwner",
          "type": "address"
        }
      ],
      "name": "OwnershipTransferred",
      "type": "event"
    },
    {
      "anonymous": false,
      "inputs": [
        {
          "indexed": true,
          "internalType": "address",
          "name": "from",
          "type": "address"
        },
        {
          "indexed": true,
          "internalType": "address",
          "name": "to",
          "type": "address"
        },
        {
          "indexed": true,
          "internalType": "uint256",
          "name": "tokenId",
          "type": "uint256"
        }
      ],
      "name": "Transfer",
      "type": "event"
    },
    {
      "inputs": [
        {
          "internalType": "address",
          "name": "to",
          "type": "address"
        },
        {
          "internalType": "uint256",
          "name": "tokenId",
          "type": "uint256"
        }
      ],
      "name": "approve",
      "outputs": [],
      "stateMutability": "nonpayable",
      "type": "function"
    },
    {
      "inputs": [
        {
          "internalType": "address",
          "name": "owner",
          "type": "address"
        }
      ],
      "name": "balanceOf",
      "outputs": [
        {
          "internalType": "uint256",
          "name": "",
          "type": "uint256"
        }
      ],
      "stateMutability": "view",
      "type": "function"
    },
    {
      "inputs": [
        {
          "internalType": "uint256",
          "name": "tokenId",
          "type": "uint256"
        }
      ],
      "name": "getApproved",
      "outputs": [
        {
          "internalType": "address",
          "name": "",
          "type": "address"
        }
      ],
      "stateMutability": "view",
      "type": "function"
    },
    {
      "inputs": [
        {
          "internalType": "address",
          "name": "owner",
          "type": "address"
        },
        {
          "internalType": "address",
          "name": "operator",
          "type": "address"
        }
      ],
      "name": "isApprovedForAll",
      "outputs": [
        {
          "internalType": "bool",
          "name": "",
          "type": "bool"
        }
      ],
      "stateMutability": "view",
      "type": "function"
    },
    {
      "inputs": [],
      "name": "isPublicMintEnabled",
      "outputs": [
        {
          "internalType": "bool",
          "name": "",
          "type": "bool"
        }
      ],
      "stateMutability": "view",
      "type": "function"
    },
    {
      "inputs": [],
      "name": "maxSupply",
      "outputs": [
        {
          "internalType": "uint256",
          "name": "",
          "type": "uint256"
        }
      ],
      "stateMutability": "view",
      "type": "function"
    },
    {
      "inputs": [],
      "name": "mint",
      "outputs": [],
      "stateMutability": "payable",
      "type": "function"
    },
    {
      "inputs": [],
      "name": "mintPrice",
      "outputs": [
        {
          "internalType": "uint256",
          "name": "",
          "type": "uint256"
        }
      ],
      "stateMutability": "view",
      "type": "function"
    },
    {
      "inputs": [],
      "name": "name",
      "outputs": [
        {
          "internalType": "string",
          "name": "",
          "type": "string"
        }
      ],
      "stateMutability": "view",
      "type": "function"
    },
    {
      "inputs": [],
      "name": "owner",
      "outputs": [
        {
          "internalType": "address",
          "name": "",
          "type": "address"
        }
      ],
      "stateMutability": "view",
      "type": "function"
    },
    {
      "inputs": [
        {
          "internalType": "uint256",
          "name": "tokenId",
          "type": "uint256"
        }
      ],
      "name": "ownerOf",
      "outputs": [
        {
          "internalType": "address",
          "name": "",
          "type": "address"
        }
      ],
      "stateMutability": "view",
      "type": "function"
    },
    {
      "inputs": [],
      "name": "privateMint",
      "outputs": [],
      "stateMutability": "payable",
      "type": "function"
    },
    {
      "inputs": [],
      "name": "renounceOwnership",
      "outputs": [],
      "stateMutability": "nonpayable",
      "type": "function"
    },
    {
      "inputs": [
        {
          "internalType": "address",
          "name": "from",
          "type": "address"
        },
        {
          "internalType": "address",
          "name": "to",
          "type": "address"
        },
        {
          "internalType": "uint256",
          "name": "tokenId",
          "type": "uint256"
        }
      ],
      "name": "safeTransferFrom",
      "outputs": [],
      "stateMutability": "nonpayable",
      "type": "function"
    },
    {
      "inputs": [
        {
          "internalType": "address",
          "name": "from",
          "type": "address"
        },
        {
          "internalType": "address",
          "name": "to",
          "type": "address"
        },
        {
          "internalType": "uint256",
          "name": "tokenId",
          "type": "uint256"
        },
        {
          "internalType": "bytes",
          "name": "data",
          "type": "bytes"
        }
      ],
      "name": "safeTransferFrom",
      "outputs": [],
      "stateMutability": "nonpayable",
      "type": "function"
    },
    {
      "inputs": [
        {
          "internalType": "address",
          "name": "operator",
          "type": "address"
        },
        {
          "internalType": "bool",
          "name": "approved",
          "type": "bool"
        }
      ],
      "name": "setApprovalForAll",
      "outputs": [],
      "stateMutability": "nonpayable",
      "type": "function"
    },
    {
      "inputs": [
        {
          "internalType": "string",
          "name": "_baseTokenUri",
          "type": "string"
        }
      ],
      "name": "setBasicTokenUri",
      "outputs": [],
      "stateMutability": "nonpayable",
      "type": "function"
    },
    {
      "inputs": [
        {
          "internalType": "bool",
          "name": "_isPublicMintEnabled",
          "type": "bool"
        }
      ],
      "name": "setIsPublicMintEnabled",
      "outputs": [],
      "stateMutability": "nonpayable",
      "type": "function"
    },
    {
      "inputs": [
        {
          "internalType": "uint256",
          "name": "_maxSupply",
          "type": "uint256"
        }
      ],
      "name": "setMaxSupply",
      "outputs": [],
      "stateMutability": "nonpayable",
      "type": "function"
    },
    {
      "inputs": [
        {
          "internalType": "uint256",
          "name": "_newMintPrice",
          "type": "uint256"
        }
      ],
      "name": "setMintPrice",
      "outputs": [],
      "stateMutability": "nonpayable",
      "type": "function"
    },
    {
      "inputs": [
        {
          "internalType": "bytes4",
          "name": "interfaceId",
          "type": "bytes4"
        }
      ],
      "name": "supportsInterface",
      "outputs": [
        {
          "internalType": "bool",
          "name": "",
          "type": "bool"
        }
      ],
      "stateMutability": "view",
      "type": "function"
    },
    {
      "inputs": [],
      "name": "symbol",
      "outputs": [
        {
          "internalType": "string",
          "name": "",
          "type": "string"
        }
      ],
      "stateMutability": "view",
      "type": "function"
    },
    {
      "inputs": [
        {
          "internalType": "uint256",
          "name": "tokenId",
          "type": "uint256"
        }
      ],
      "name": "tokenURI",
      "outputs": [
        {
          "internalType": "string",
          "name": "",
          "type": "string"
        }
      ],
      "stateMutability": "view",
      "type": "function"
    },
    {
      "inputs": [],
      "name": "totalSupply",
      "outputs": [
        {
          "internalType": "uint256",
          "name": "",
          "type": "uint256"
        }
      ],
      "stateMutability": "view",
      "type": "function"
    },
    {
      "inputs": [
        {
          "internalType": "address",
          "name": "from",
          "type": "address"
        },
        {
          "internalType": "address",
          "name": "to",
          "type": "address"
        },
        {
          "internalType": "uint256",
          "name": "tokenId",
          "type": "uint256"
        }
      ],
      "name": "transferFrom",
      "outputs": [],
      "stateMutability": "nonpayable",
      "type": "function"
    },
    {
      "inputs": [
        {
          "internalType": "address",
          "name": "newOwner",
          "type": "address"
        }
      ],
      "name": "transferOwnership",
      "outputs": [],
      "stateMutability": "nonpayable",
      "type": "function"
    },
    {
      "inputs": [
        {
          "internalType": "address",
          "name": "",
          "type": "address"
        }
      ],
      "name": "walletMints",
      "outputs": [
        {
          "internalType": "uint256",
          "name": "",
          "type": "uint256"
        }
      ],
      "stateMutability": "view",
      "type": "function"
    },
    {
      "inputs": [],
      "name": "widthdraw",
      "outputs": [],
      "stateMutability": "nonpayable",
      "type": "function"
    },
    {
      "inputs": [],
      "name": "withdrawWallet",
      "outputs": [
        {
          "internalType": "address payable",
          "name": "",
          "type": "address"
        }
      ],
      "stateMutability": "view",
      "type": "function"
    }
  ],
  "bytecode": "0x60806040526040518060400160405280600781526020017f4d474c50617373000000000000000000000000000000000000000000000000008152506040518060400160405280600381526020017f4d474c000000000000000000000000000000000000000000000000000000000081525081600090816200008191906200042c565b5080600190816200009391906200042c565b505050620000b6620000aa620000e460201b60201c565b620000ec60201b60201c565b6001600881905550670de0b6b3a76400006009819055506000600a819055506103e8600b8190555062000513565b600033905090565b6000600760009054906101000a900473ffffffffffffffffffffffffffffffffffffffff16905081600760006101000a81548173ffffffffffffffffffffffffffffffffffffffff021916908373ffffffffffffffffffffffffffffffffffffffff1602179055508173ffffffffffffffffffffffffffffffffffffffff168173ffffffffffffffffffffffffffffffffffffffff167f8be0079c531659141344cd1fd0a4f28419497f9722a3daafe3b4186f6b6457e060405160405180910390a35050565b600081519050919050565b7f4e487b7100000000000000000000000000000000000000000000000000000000600052604160045260246000fd5b7f4e487b7100000000000000000000000000000000000000000000000000000000600052602260045260246000fd5b600060028204905060018216806200023457607f821691505b6020821081036200024a5762000249620001ec565b5b50919050565b60008190508160005260206000209050919050565b60006020601f8301049050919050565b600082821b905092915050565b600060088302620002b47fffffffffffffffffffffffffffffffffffffffffffffffffffffffffffffffff8262000275565b620002c0868362000275565b95508019841693508086168417925050509392505050565b6000819050919050565b6000819050919050565b60006200030d620003076200030184620002d8565b620002e2565b620002d8565b9050919050565b6000819050919050565b6200032983620002ec565b62000341620003388262000314565b84845462000282565b825550505050565b600090565b6200035862000349565b620003658184846200031e565b505050565b5b818110156200038d57620003816000826200034e565b6001810190506200036b565b5050565b601f821115620003dc57620003a68162000250565b620003b18462000265565b81016020851015620003c1578190505b620003d9620003d08562000265565b8301826200036a565b50505b505050565b600082821c905092915050565b60006200040160001984600802620003e1565b1980831691505092915050565b60006200041c8383620003ee565b9150826002028217905092915050565b6200043782620001b2565b67ffffffffffffffff811115620004535762000452620001bd565b5b6200045f82546200021b565b6200046c82828562000391565b600060209050601f831160018114620004a457600084156200048f578287015190505b6200049b85826200040e565b8655506200050b565b601f198416620004b48662000250565b60005b82811015620004de57848901518255600182019150602085019450602081019050620004b7565b86831015620004fe5784890151620004fa601f891682620003ee565b8355505b6001600288020188555050505b505050505050565b613b2a80620005236000396000f3fe6080604052600436106101c25760003560e01c80636817c76c116100f7578063a22cb46511610095578063e985e9c511610064578063e985e9c5146105da578063f0293fd314610617578063f2fde38b14610654578063f4a0a5281461067d576101c2565b8063a22cb46514610520578063b88d4fde14610549578063c87b56dd14610572578063d5abeb01146105af576101c2565b8063715018a6116100d1578063715018a61461048857806385d178f41461049f5780638da5cb5b146104ca57806395d89b41146104f5576101c2565b80636817c76c146103f75780636f8b44b01461042257806370a082311461044b576101c2565b80632373ac221161016457806342842e0e1161013e57806342842e0e1461035157806350eb108f1461037a57806352b50a2a146103a35780636352211e146103ba576101c2565b80632373ac22146102f557806323b872dd1461031e5780633f5ab22414610347576101c2565b8063081812fc116101a0578063081812fc1461025a578063095ea7b3146102975780631249c58b146102c057806318160ddd146102ca576101c2565b80630116bc2d146101c757806301ffc9a7146101f257806306fdde031461022f575b600080fd5b3480156101d357600080fd5b506101dc6106a6565b6040516101e9919061245d565b60405180910390f35b3480156101fe57600080fd5b50610219600480360381019061021491906124e4565b6106b9565b604051610226919061245d565b60405180910390f35b34801561023b57600080fd5b5061024461079b565b60405161025191906125a1565b60405180910390f35b34801561026657600080fd5b50610281600480360381019061027c91906125f9565b61082d565b60405161028e9190612667565b60405180910390f35b3480156102a357600080fd5b506102be60048036038101906102b991906126ae565b610873565b005b6102c861098a565b005b3480156102d657600080fd5b506102df610c19565b6040516102ec91906126fd565b60405180910390f35b34801561030157600080fd5b5061031c60048036038101906103179190612744565b610c1f565b005b34801561032a57600080fd5b5061034560048036038101906103409190612771565b610c44565b005b61034f610ca4565b005b34801561035d57600080fd5b5061037860048036038101906103739190612771565b610dcf565b005b34801561038657600080fd5b506103a1600480360381019061039c9190612829565b610def565b005b3480156103af57600080fd5b506103b8610e0d565b005b3480156103c657600080fd5b506103e160048036038101906103dc91906125f9565b610ee6565b6040516103ee9190612667565b60405180910390f35b34801561040357600080fd5b5061040c610f6c565b60405161041991906126fd565b60405180910390f35b34801561042e57600080fd5b50610449600480360381019061044491906125f9565b610f72565b005b34801561045757600080fd5b50610472600480360381019061046d9190612876565b610f84565b60405161047f91906126fd565b60405180910390f35b34801561049457600080fd5b5061049d61103b565b005b3480156104ab57600080fd5b506104b461104f565b6040516104c191906128c4565b60405180910390f35b3480156104d657600080fd5b506104df611075565b6040516104ec9190612667565b60405180910390f35b34801561050157600080fd5b5061050a61109f565b60405161051791906125a1565b60405180910390f35b34801561052c57600080fd5b50610547600480360381019061054291906128df565b611131565b005b34801561055557600080fd5b50610570600480360381019061056b9190612a4f565b611147565b005b34801561057e57600080fd5b50610599600480360381019061059491906125f9565b6111a9565b6040516105a691906125a1565b60405180910390f35b3480156105bb57600080fd5b506105c46112bb565b6040516105d191906126fd565b60405180910390f35b3480156105e657600080fd5b5061060160048036038101906105fc9190612ad2565b6112c1565b60405161060e919061245d565b60405180910390f35b34801561062357600080fd5b5061063e60048036038101906106399190612876565b611355565b60405161064b91906126fd565b60405180910390f35b34801561066057600080fd5b5061067b60048036038101906106769190612876565b61136d565b005b34801561068957600080fd5b506106a4600480360381019061069f91906125f9565b6113f0565b005b600c60009054906101000a900460ff1681565b60007f80ac58cd000000000000000000000000000000000000000000000000000000007bffffffffffffffffffffffffffffffffffffffffffffffffffffffff1916827bffffffffffffffffffffffffffffffffffffffffffffffffffffffff1916148061078457507f5b5e139f000000000000000000000000000000000000000000000000000000007bffffffffffffffffffffffffffffffffffffffffffffffffffffffff1916827bffffffffffffffffffffffffffffffffffffffffffffffffffffffff1916145b80610794575061079382611402565b5b9050919050565b6060600080546107aa90612b41565b80601f01602080910402602001604051908101604052809291908181526020018280546107d690612b41565b80156108235780601f106107f857610100808354040283529160200191610823565b820191906000526020600020905b81548152906001019060200180831161080657829003601f168201915b5050505050905090565b60006108388261146c565b6004600083815260200190815260200160002060009054906101000a900473ffffffffffffffffffffffffffffffffffffffff169050919050565b600061087e82610ee6565b90508073ffffffffffffffffffffffffffffffffffffffff168373ffffffffffffffffffffffffffffffffffffffff16036108ee576040517f08c379a00000000000000000000000000000000000000000000000000000000081526004016108e590612be4565b60405180910390fd5b8073ffffffffffffffffffffffffffffffffffffffff1661090d6114b7565b73ffffffffffffffffffffffffffffffffffffffff16148061093c575061093b816109366114b7565b6112c1565b5b61097b576040517f08c379a000000000000000000000000000000000000000000000000000000000815260040161097290612c76565b60405180910390fd5b61098583836114bf565b505050565b610992611578565b600c60009054906101000a900460ff166109e1576040517f08c379a00000000000000000000000000000000000000000000000000000000081526004016109d890612ce2565b60405180910390fd5b600954341015610a26576040517f08c379a0000000000000000000000000000000000000000000000000000000008152600401610a1d90612d4e565b60405180910390fd5b6000600f60003373ffffffffffffffffffffffffffffffffffffffff1673ffffffffffffffffffffffffffffffffffffffff1681526020019081526020016000205414610aa8576040517f08c379a0000000000000000000000000000000000000000000000000000000008152600401610a9f90612dba565b60405180910390fd5b600b54600a5410610aee576040517f08c379a0000000000000000000000000000000000000000000000000000000008152600401610ae590612e26565b60405180910390fd5b60006001600a54610aff9190612e75565b9050600a6000815480929190610b1490612ea9565b9190505550610b2333826115c7565b610bb781600d8054610b3490612b41565b80601f0160208091040260200160405190810160405280929190818152602001828054610b6090612b41565b8015610bad5780601f10610b8257610100808354040283529160200191610bad565b820191906000526020600020905b815481529060010190602001808311610b9057829003601f168201915b50505050506115e5565b6001600f60003373ffffffffffffffffffffffffffffffffffffffff1673ffffffffffffffffffffffffffffffffffffffff1681526020019081526020016000206000828254610c079190612e75565b9250508190555050610c17611652565b565b600a5481565b610c2761165c565b80600c60006101000a81548160ff02191690831515021790555050565b610c55610c4f6114b7565b826116da565b610c94576040517f08c379a0000000000000000000000000000000000000000000000000000000008152600401610c8b90612f63565b60405180910390fd5b610c9f83838361176f565b505050565b610cac61165c565b60006001600a54610cbd9190612e75565b9050600a6000815480929190610cd290612ea9565b9190505550610ce133826115c7565b610d7581600d8054610cf290612b41565b80601f0160208091040260200160405190810160405280929190818152602001828054610d1e90612b41565b8015610d6b5780601f10610d4057610100808354040283529160200191610d6b565b820191906000526020600020905b815481529060010190602001808311610d4e57829003601f168201915b50505050506115e5565b6001600f60003373ffffffffffffffffffffffffffffffffffffffff1673ffffffffffffffffffffffffffffffffffffffff1681526020019081526020016000206000828254610dc59190612e75565b9250508190555050565b610dea83838360405180602001604052806000815250611147565b505050565b610df761165c565b8181600d9182610e0892919061313a565b505050565b610e1561165c565b6000600e60009054906101000a900473ffffffffffffffffffffffffffffffffffffffff1673ffffffffffffffffffffffffffffffffffffffff1647604051610e5d9061323b565b60006040518083038185875af1925050503d8060008114610e9a576040519150601f19603f3d011682016040523d82523d6000602084013e610e9f565b606091505b5050905080610ee3576040517f08c379a0000000000000000000000000000000000000000000000000000000008152600401610eda9061329c565b60405180910390fd5b50565b600080610ef283611a68565b9050600073ffffffffffffffffffffffffffffffffffffffff168173ffffffffffffffffffffffffffffffffffffffff1603610f63576040517f08c379a0000000000000000000000000000000000000000000000000000000008152600401610f5a90613308565b60405180910390fd5b80915050919050565b60095481565b610f7a61165c565b80600b8190555050565b60008073ffffffffffffffffffffffffffffffffffffffff168273ffffffffffffffffffffffffffffffffffffffff1603610ff4576040517f08c379a0000000000000000000000000000000000000000000000000000000008152600401610feb9061339a565b60405180910390fd5b600360008373ffffffffffffffffffffffffffffffffffffffff1673ffffffffffffffffffffffffffffffffffffffff168152602001908152602001600020549050919050565b61104361165c565b61104d6000611aa5565b565b600e60009054906101000a900473ffffffffffffffffffffffffffffffffffffffff1681565b6000600760009054906101000a900473ffffffffffffffffffffffffffffffffffffffff16905090565b6060600180546110ae90612b41565b80601f01602080910402602001604051908101604052809291908181526020018280546110da90612b41565b80156111275780601f106110fc57610100808354040283529160200191611127565b820191906000526020600020905b81548152906001019060200180831161110a57829003601f168201915b5050505050905090565b61114361113c6114b7565b8383611b6b565b5050565b6111586111526114b7565b836116da565b611197576040517f08c379a000000000000000000000000000000000000000000000000000000000815260040161118e90612f63565b60405180910390fd5b6111a384848484611cd7565b50505050565b60606111b48261146c565b60006006600084815260200190815260200160002080546111d490612b41565b80601f016020809104026020016040519081016040528092919081815260200182805461120090612b41565b801561124d5780601f106112225761010080835404028352916020019161124d565b820191906000526020600020905b81548152906001019060200180831161123057829003601f168201915b50505050509050600061125e611d33565b905060008151036112735781925050506112b6565b6000825111156112a85780826040516020016112909291906133f6565b604051602081830303815290604052925050506112b6565b6112b184611d4a565b925050505b919050565b600b5481565b6000600560008473ffffffffffffffffffffffffffffffffffffffff1673ffffffffffffffffffffffffffffffffffffffff16815260200190815260200160002060008373ffffffffffffffffffffffffffffffffffffffff1673ffffffffffffffffffffffffffffffffffffffff16815260200190815260200160002060009054906101000a900460ff16905092915050565b600f6020528060005260406000206000915090505481565b61137561165c565b600073ffffffffffffffffffffffffffffffffffffffff168173ffffffffffffffffffffffffffffffffffffffff16036113e4576040517f08c379a00000000000000000000000000000000000000000000000000000000081526004016113db9061348c565b60405180910390fd5b6113ed81611aa5565b50565b6113f861165c565b8060098190555050565b60007f01ffc9a7000000000000000000000000000000000000000000000000000000007bffffffffffffffffffffffffffffffffffffffffffffffffffffffff1916827bffffffffffffffffffffffffffffffffffffffffffffffffffffffff1916149050919050565b61147581611db2565b6114b4576040517f08c379a00000000000000000000000000000000000000000000000000000000081526004016114ab90613308565b60405180910390fd5b50565b600033905090565b816004600083815260200190815260200160002060006101000a81548173ffffffffffffffffffffffffffffffffffffffff021916908373ffffffffffffffffffffffffffffffffffffffff160217905550808273ffffffffffffffffffffffffffffffffffffffff1661153283610ee6565b73ffffffffffffffffffffffffffffffffffffffff167f8c5be1e5ebec7d5bd14f71427d1e84f3dd0314c0f7b2291e5b200ac8c7c3b92560405160405180910390a45050565b6002600854036115bd576040517f08c379a00000000000000000000000000000000000000000000000000000000081526004016115b4906134f8565b60405180910390fd5b6002600881905550565b6115e1828260405180602001604052806000815250611df3565b5050565b6115ee82611db2565b61162d576040517f08c379a00000000000000000000000000000000000000000000000000000000081526004016116249061358a565b60405180910390fd5b8060066000848152602001908152602001600020908161164d91906135aa565b505050565b6001600881905550565b6116646114b7565b73ffffffffffffffffffffffffffffffffffffffff16611682611075565b73ffffffffffffffffffffffffffffffffffffffff16146116d8576040517f08c379a00000000000000000000000000000000000000000000000000000000081526004016116cf906136c8565b60405180910390fd5b565b6000806116e683610ee6565b90508073ffffffffffffffffffffffffffffffffffffffff168473ffffffffffffffffffffffffffffffffffffffff161480611728575061172781856112c1565b5b8061176657508373ffffffffffffffffffffffffffffffffffffffff1661174e8461082d565b73ffffffffffffffffffffffffffffffffffffffff16145b91505092915050565b8273ffffffffffffffffffffffffffffffffffffffff1661178f82610ee6565b73ffffffffffffffffffffffffffffffffffffffff16146117e5576040517f08c379a00000000000000000000000000000000000000000000000000000000081526004016117dc9061375a565b60405180910390fd5b600073ffffffffffffffffffffffffffffffffffffffff168273ffffffffffffffffffffffffffffffffffffffff1603611854576040517f08c379a000000000000000000000000000000000000000000000000000000000815260040161184b906137ec565b60405180910390fd5b6118618383836001611e4e565b8273ffffffffffffffffffffffffffffffffffffffff1661188182610ee6565b73ffffffffffffffffffffffffffffffffffffffff16146118d7576040517f08c379a00000000000000000000000000000000000000000000000000000000081526004016118ce9061375a565b60405180910390fd5b6004600082815260200190815260200160002060006101000a81549073ffffffffffffffffffffffffffffffffffffffff02191690556001600360008573ffffffffffffffffffffffffffffffffffffffff1673ffffffffffffffffffffffffffffffffffffffff168152602001908152602001600020600082825403925050819055506001600360008473ffffffffffffffffffffffffffffffffffffffff1673ffffffffffffffffffffffffffffffffffffffff16815260200190815260200160002060008282540192505081905550816002600083815260200190815260200160002060006101000a81548173ffffffffffffffffffffffffffffffffffffffff021916908373ffffffffffffffffffffffffffffffffffffffff160217905550808273ffffffffffffffffffffffffffffffffffffffff168473ffffffffffffffffffffffffffffffffffffffff167fddf252ad1be2c89b69c2b068fc378daa952ba7f163c4a11628f55a4df523b3ef60405160405180910390a4611a638383836001611e54565b505050565b60006002600083815260200190815260200160002060009054906101000a900473ffffffffffffffffffffffffffffffffffffffff169050919050565b6000600760009054906101000a900473ffffffffffffffffffffffffffffffffffffffff16905081600760006101000a81548173ffffffffffffffffffffffffffffffffffffffff021916908373ffffffffffffffffffffffffffffffffffffffff1602179055508173ffffffffffffffffffffffffffffffffffffffff168173ffffffffffffffffffffffffffffffffffffffff167f8be0079c531659141344cd1fd0a4f28419497f9722a3daafe3b4186f6b6457e060405160405180910390a35050565b8173ffffffffffffffffffffffffffffffffffffffff168373ffffffffffffffffffffffffffffffffffffffff1603611bd9576040517f08c379a0000000000000000000000000000000000000000000000000000000008152600401611bd090613858565b60405180910390fd5b80600560008573ffffffffffffffffffffffffffffffffffffffff1673ffffffffffffffffffffffffffffffffffffffff16815260200190815260200160002060008473ffffffffffffffffffffffffffffffffffffffff1673ffffffffffffffffffffffffffffffffffffffff16815260200190815260200160002060006101000a81548160ff0219169083151502179055508173ffffffffffffffffffffffffffffffffffffffff168373ffffffffffffffffffffffffffffffffffffffff167f17307eab39ab6107e8899845ad3d59bd9653f200f220920489ca2b5937696c3183604051611cca919061245d565b60405180910390a3505050565b611ce284848461176f565b611cee84848484611e5a565b611d2d576040517f08c379a0000000000000000000000000000000000000000000000000000000008152600401611d24906138ea565b60405180910390fd5b50505050565b606060405180602001604052806000815250905090565b6060611d558261146c565b6000611d5f611d33565b90506000815111611d7f5760405180602001604052806000815250611daa565b80611d8984611fe1565b604051602001611d9a9291906133f6565b6040516020818303038152906040525b915050919050565b60008073ffffffffffffffffffffffffffffffffffffffff16611dd483611a68565b73ffffffffffffffffffffffffffffffffffffffff1614159050919050565b611dfd83836120af565b611e0a6000848484611e5a565b611e49576040517f08c379a0000000000000000000000000000000000000000000000000000000008152600401611e40906138ea565b60405180910390fd5b505050565b50505050565b50505050565b6000611e7b8473ffffffffffffffffffffffffffffffffffffffff166122cc565b15611fd4578373ffffffffffffffffffffffffffffffffffffffff1663150b7a02611ea46114b7565b8786866040518563ffffffff1660e01b8152600401611ec6949392919061395f565b6020604051808303816000875af1925050508015611f0257506040513d601f19601f82011682018060405250810190611eff91906139c0565b60015b611f84573d8060008114611f32576040519150601f19603f3d011682016040523d82523d6000602084013e611f37565b606091505b506000815103611f7c576040517f08c379a0000000000000000000000000000000000000000000000000000000008152600401611f73906138ea565b60405180910390fd5b805181602001fd5b63150b7a0260e01b7bffffffffffffffffffffffffffffffffffffffffffffffffffffffff1916817bffffffffffffffffffffffffffffffffffffffffffffffffffffffff191614915050611fd9565b600190505b949350505050565b606060006001611ff0846122ef565b01905060008167ffffffffffffffff81111561200f5761200e612924565b5b6040519080825280601f01601f1916602001820160405280156120415781602001600182028036833780820191505090505b509050600082602001820190505b6001156120a4578080600190039150507f3031323334353637383961626364656600000000000000000000000000000000600a86061a8153600a8581612098576120976139ed565b5b0494506000850361204f575b819350505050919050565b600073ffffffffffffffffffffffffffffffffffffffff168273ffffffffffffffffffffffffffffffffffffffff160361211e576040517f08c379a000000000000000000000000000000000000000000000000000000000815260040161211590613a68565b60405180910390fd5b61212781611db2565b15612167576040517f08c379a000000000000000000000000000000000000000000000000000000000815260040161215e90613ad4565b60405180910390fd5b612175600083836001611e4e565b61217e81611db2565b156121be576040517f08c379a00000000000000000000000000000000000000000000000000000000081526004016121b590613ad4565b60405180910390fd5b6001600360008473ffffffffffffffffffffffffffffffffffffffff1673ffffffffffffffffffffffffffffffffffffffff16815260200190815260200160002060008282540192505081905550816002600083815260200190815260200160002060006101000a81548173ffffffffffffffffffffffffffffffffffffffff021916908373ffffffffffffffffffffffffffffffffffffffff160217905550808273ffffffffffffffffffffffffffffffffffffffff16600073ffffffffffffffffffffffffffffffffffffffff167fddf252ad1be2c89b69c2b068fc378daa952ba7f163c4a11628f55a4df523b3ef60405160405180910390a46122c8600083836001611e54565b5050565b6000808273ffffffffffffffffffffffffffffffffffffffff163b119050919050565b600080600090507a184f03e93ff9f4daa797ed6e38ed64bf6a1f010000000000000000831061234d577a184f03e93ff9f4daa797ed6e38ed64bf6a1f0100000000000000008381612343576123426139ed565b5b0492506040810190505b6d04ee2d6d415b85acef8100000000831061238a576d04ee2d6d415b85acef810000000083816123805761237f6139ed565b5b0492506020810190505b662386f26fc1000083106123b957662386f26fc1000083816123af576123ae6139ed565b5b0492506010810190505b6305f5e10083106123e2576305f5e10083816123d8576123d76139ed565b5b0492506008810190505b61271083106124075761271083816123fd576123fc6139ed565b5b0492506004810190505b6064831061242a57606483816124205761241f6139ed565b5b0492506002810190505b600a8310612439576001810190505b80915050919050565b60008115159050919050565b61245781612442565b82525050565b6000602082019050612472600083018461244e565b92915050565b6000604051905090565b600080fd5b600080fd5b60007fffffffff0000000000000000000000000000000000000000000000000000000082169050919050565b6124c18161248c565b81146124cc57600080fd5b50565b6000813590506124de816124b8565b92915050565b6000602082840312156124fa576124f9612482565b5b6000612508848285016124cf565b91505092915050565b600081519050919050565b600082825260208201905092915050565b60005b8381101561254b578082015181840152602081019050612530565b60008484015250505050565b6000601f19601f8301169050919050565b600061257382612511565b61257d818561251c565b935061258d81856020860161252d565b61259681612557565b840191505092915050565b600060208201905081810360008301526125bb8184612568565b905092915050565b6000819050919050565b6125d6816125c3565b81146125e157600080fd5b50565b6000813590506125f3816125cd565b92915050565b60006020828403121561260f5761260e612482565b5b600061261d848285016125e4565b91505092915050565b600073ffffffffffffffffffffffffffffffffffffffff82169050919050565b600061265182612626565b9050919050565b61266181612646565b82525050565b600060208201905061267c6000830184612658565b92915050565b61268b81612646565b811461269657600080fd5b50565b6000813590506126a881612682565b92915050565b600080604083850312156126c5576126c4612482565b5b60006126d385828601612699565b92505060206126e4858286016125e4565b9150509250929050565b6126f7816125c3565b82525050565b600060208201905061271260008301846126ee565b92915050565b61272181612442565b811461272c57600080fd5b50565b60008135905061273e81612718565b92915050565b60006020828403121561275a57612759612482565b5b60006127688482850161272f565b91505092915050565b60008060006060848603121561278a57612789612482565b5b600061279886828701612699565b93505060206127a986828701612699565b92505060406127ba868287016125e4565b9150509250925092565b600080fd5b600080fd5b600080fd5b60008083601f8401126127e9576127e86127c4565b5b8235905067ffffffffffffffff811115612806576128056127c9565b5b602083019150836001820283011115612822576128216127ce565b5b9250929050565b600080602083850312156128405761283f612482565b5b600083013567ffffffffffffffff81111561285e5761285d612487565b5b61286a858286016127d3565b92509250509250929050565b60006020828403121561288c5761288b612482565b5b600061289a84828501612699565b91505092915050565b60006128ae82612626565b9050919050565b6128be816128a3565b82525050565b60006020820190506128d960008301846128b5565b92915050565b600080604083850312156128f6576128f5612482565b5b600061290485828601612699565b92505060206129158582860161272f565b9150509250929050565b600080fd5b7f4e487b7100000000000000000000000000000000000000000000000000000000600052604160045260246000fd5b61295c82612557565b810181811067ffffffffffffffff8211171561297b5761297a612924565b5b80604052505050565b600061298e612478565b905061299a8282612953565b919050565b600067ffffffffffffffff8211156129ba576129b9612924565b5b6129c382612557565b9050602081019050919050565b82818337600083830152505050565b60006129f26129ed8461299f565b612984565b905082815260208101848484011115612a0e57612a0d61291f565b5b612a198482856129d0565b509392505050565b600082601f830112612a3657612a356127c4565b5b8135612a468482602086016129df565b91505092915050565b60008060008060808587031215612a6957612a68612482565b5b6000612a7787828801612699565b9450506020612a8887828801612699565b9350506040612a99878288016125e4565b925050606085013567ffffffffffffffff811115612aba57612ab9612487565b5b612ac687828801612a21565b91505092959194509250565b60008060408385031215612ae957612ae8612482565b5b6000612af785828601612699565b9250506020612b0885828601612699565b9150509250929050565b7f4e487b7100000000000000000000000000000000000000000000000000000000600052602260045260246000fd5b60006002820490506001821680612b5957607f821691505b602082108103612b6c57612b6b612b12565b5b50919050565b7f4552433732313a20617070726f76616c20746f2063757272656e74206f776e6560008201527f7200000000000000000000000000000000000000000000000000000000000000602082015250565b6000612bce60218361251c565b9150612bd982612b72565b604082019050919050565b60006020820190508181036000830152612bfd81612bc1565b9050919050565b7f4552433732313a20617070726f76652063616c6c6572206973206e6f7420746f60008201527f6b656e206f776e6572206f7220617070726f76656420666f7220616c6c000000602082015250565b6000612c60603d8361251c565b9150612c6b82612c04565b604082019050919050565b60006020820190508181036000830152612c8f81612c53565b9050919050565b7f6d696e74696e67206e6f7420656e61626c656400000000000000000000000000600082015250565b6000612ccc60138361251c565b9150612cd782612c96565b602082019050919050565b60006020820190508181036000830152612cfb81612cbf565b9050919050565b7f77726f6e67206d696e742076616c756500000000000000000000000000000000600082015250565b6000612d3860108361251c565b9150612d4382612d02565b602082019050919050565b60006020820190508181036000830152612d6781612d2b565b9050919050565b7f657863656564206d61782077616c6c6574000000000000000000000000000000600082015250565b6000612da460118361251c565b9150612daf82612d6e565b602082019050919050565b60006020820190508181036000830152612dd381612d97565b9050919050565b7f537570706c79206c696d69742072656163686564000000000000000000000000600082015250565b6000612e1060148361251c565b9150612e1b82612dda565b602082019050919050565b60006020820190508181036000830152612e3f81612e03565b9050919050565b7f4e487b7100000000000000000000000000000000000000000000000000000000600052601160045260246000fd5b6000612e80826125c3565b9150612e8b836125c3565b9250828201905080821115612ea357612ea2612e46565b5b92915050565b6000612eb4826125c3565b91507fffffffffffffffffffffffffffffffffffffffffffffffffffffffffffffffff8203612ee657612ee5612e46565b5b600182019050919050565b7f4552433732313a2063616c6c6572206973206e6f7420746f6b656e206f776e6560008201527f72206f7220617070726f76656400000000000000000000000000000000000000602082015250565b6000612f4d602d8361251c565b9150612f5882612ef1565b604082019050919050565b60006020820190508181036000830152612f7c81612f40565b9050919050565b600082905092915050565b60008190508160005260206000209050919050565b60006020601f8301049050919050565b600082821b905092915050565b600060088302612ff07fffffffffffffffffffffffffffffffffffffffffffffffffffffffffffffffff82612fb3565b612ffa8683612fb3565b95508019841693508086168417925050509392505050565b6000819050919050565b600061303761303261302d846125c3565b613012565b6125c3565b9050919050565b6000819050919050565b6130518361301c565b61306561305d8261303e565b848454612fc0565b825550505050565b600090565b61307a61306d565b613085818484613048565b505050565b5b818110156130a95761309e600082613072565b60018101905061308b565b5050565b601f8211156130ee576130bf81612f8e565b6130c884612fa3565b810160208510156130d7578190505b6130eb6130e385612fa3565b83018261308a565b50505b505050565b600082821c905092915050565b6000613111600019846008026130f3565b1980831691505092915050565b600061312a8383613100565b9150826002028217905092915050565b6131448383612f83565b67ffffffffffffffff81111561315d5761315c612924565b5b6131678254612b41565b6131728282856130ad565b6000601f8311600181146131a1576000841561318f578287013590505b613199858261311e565b865550613201565b601f1984166131af86612f8e565b60005b828110156131d7578489013582556001820191506020850194506020810190506131b2565b868310156131f457848901356131f0601f891682613100565b8355505b6001600288020188555050505b50505050505050565b600081905092915050565b50565b600061322560008361320a565b915061323082613215565b600082019050919050565b600061324682613218565b9150819050919050565b7f5769746864726177616c206661696c6564000000000000000000000000000000600082015250565b600061328660118361251c565b915061329182613250565b602082019050919050565b600060208201905081810360008301526132b581613279565b9050919050565b7f4552433732313a20696e76616c696420746f6b656e2049440000000000000000600082015250565b60006132f260188361251c565b91506132fd826132bc565b602082019050919050565b60006020820190508181036000830152613321816132e5565b9050919050565b7f4552433732313a2061646472657373207a65726f206973206e6f74206120766160008201527f6c6964206f776e65720000000000000000000000000000000000000000000000602082015250565b600061338460298361251c565b915061338f82613328565b604082019050919050565b600060208201905081810360008301526133b381613377565b9050919050565b600081905092915050565b60006133d082612511565b6133da81856133ba565b93506133ea81856020860161252d565b80840191505092915050565b600061340282856133c5565b915061340e82846133c5565b91508190509392505050565b7f4f776e61626c653a206e6577206f776e657220697320746865207a65726f206160008201527f6464726573730000000000000000000000000000000000000000000000000000602082015250565b600061347660268361251c565b91506134818261341a565b604082019050919050565b600060208201905081810360008301526134a581613469565b9050919050565b7f5265656e7472616e637947756172643a207265656e7472616e742063616c6c00600082015250565b60006134e2601f8361251c565b91506134ed826134ac565b602082019050919050565b60006020820190508181036000830152613511816134d5565b9050919050565b7f45524337323155524953746f726167653a2055524920736574206f66206e6f6e60008201527f6578697374656e7420746f6b656e000000000000000000000000000000000000602082015250565b6000613574602e8361251c565b915061357f82613518565b604082019050919050565b600060208201905081810360008301526135a381613567565b9050919050565b6135b382612511565b67ffffffffffffffff8111156135cc576135cb612924565b5b6135d68254612b41565b6135e18282856130ad565b600060209050601f8311600181146136145760008415613602578287015190505b61360c858261311e565b865550613674565b601f19841661362286612f8e565b60005b8281101561364a57848901518255600182019150602085019450602081019050613625565b868310156136675784890151613663601f891682613100565b8355505b6001600288020188555050505b505050505050565b7f4f776e61626c653a2063616c6c6572206973206e6f7420746865206f776e6572600082015250565b60006136b260208361251c565b91506136bd8261367c565b602082019050919050565b600060208201905081810360008301526136e1816136a5565b9050919050565b7f4552433732313a207472616e736665722066726f6d20696e636f72726563742060008201527f6f776e6572000000000000000000000000000000000000000000000000000000602082015250565b600061374460258361251c565b915061374f826136e8565b604082019050919050565b6000602082019050818103600083015261377381613737565b9050919050565b7f4552433732313a207472616e7366657220746f20746865207a65726f2061646460008201527f7265737300000000000000000000000000000000000000000000000000000000602082015250565b60006137d660248361251c565b91506137e18261377a565b604082019050919050565b60006020820190508181036000830152613805816137c9565b9050919050565b7f4552433732313a20617070726f766520746f2063616c6c657200000000000000600082015250565b600061384260198361251c565b915061384d8261380c565b602082019050919050565b6000602082019050818103600083015261387181613835565b9050919050565b7f4552433732313a207472616e7366657220746f206e6f6e20455243373231526560008201527f63656976657220696d706c656d656e7465720000000000000000000000000000602082015250565b60006138d460328361251c565b91506138df82613878565b604082019050919050565b60006020820190508181036000830152613903816138c7565b9050919050565b600081519050919050565b600082825260208201905092915050565b60006139318261390a565b61393b8185613915565b935061394b81856020860161252d565b61395481612557565b840191505092915050565b60006080820190506139746000830187612658565b6139816020830186612658565b61398e60408301856126ee565b81810360608301526139a08184613926565b905095945050505050565b6000815190506139ba816124b8565b92915050565b6000602082840312156139d6576139d5612482565b5b60006139e4848285016139ab565b91505092915050565b7f4e487b7100000000000000000000000000000000000000000000000000000000600052601260045260246000fd5b7f4552433732313a206d696e7420746f20746865207a65726f2061646472657373600082015250565b6000613a5260208361251c565b9150613a5d82613a1c565b602082019050919050565b60006020820190508181036000830152613a8181613a45565b9050919050565b7f4552433732313a20746f6b656e20616c7265616479206d696e74656400000000600082015250565b6000613abe601c8361251c565b9150613ac982613a88565b602082019050919050565b60006020820190508181036000830152613aed81613ab1565b905091905056fea264697066735822122073cf77f1b4a1498ea3589491ba8147d45806387d8dd3dc2cae8d406e765f35dd64736f6c63430008110033",
  "linkReferences": {},
  "deployedLinkReferences": {}
}